{
  "contractName": "ArtGallery",
  "abi": [
    {
      "anonymous": false,
      "inputs": [
        {
          "indexed": false,
          "internalType": "address",
          "name": "artist",
          "type": "address"
        },
        {
          "indexed": false,
          "internalType": "string",
          "name": "name",
          "type": "string"
        }
      ],
      "name": "ArtistRegistered",
      "type": "event"
    },
    {
      "anonymous": false,
      "inputs": [
        {
          "indexed": false,
          "internalType": "uint256",
          "name": "artworkId",
          "type": "uint256"
        },
        {
          "indexed": false,
          "internalType": "address",
          "name": "buyer",
          "type": "address"
        }
      ],
      "name": "ArtworkPurchased",
      "type": "event"
    },
    {
      "anonymous": false,
      "inputs": [
        {
          "indexed": false,
          "internalType": "uint256",
          "name": "artworkId",
          "type": "uint256"
        },
        {
          "indexed": false,
          "internalType": "address",
          "name": "artist",
          "type": "address"
        }
      ],
      "name": "ArtworkRemoved",
      "type": "event"
    },
    {
      "anonymous": false,
      "inputs": [
        {
          "indexed": false,
          "internalType": "uint256",
          "name": "artworkId",
          "type": "uint256"
        },
        {
          "indexed": false,
          "internalType": "address",
          "name": "artist",
          "type": "address"
        }
      ],
      "name": "ArtworkUploaded",
      "type": "event"
    },
    {
      "anonymous": false,
      "inputs": [
        {
          "indexed": false,
          "internalType": "address",
          "name": "artist",
          "type": "address"
        },
        {
          "indexed": false,
          "internalType": "address",
          "name": "tipper",
          "type": "address"
        },
        {
          "indexed": false,
          "internalType": "uint256",
          "name": "amount",
          "type": "uint256"
        }
      ],
      "name": "Tipped",
      "type": "event"
    },
    {
      "inputs": [
        {
          "internalType": "address",
          "name": "",
          "type": "address"
        }
      ],
      "name": "artists",
      "outputs": [
        {
          "internalType": "string",
          "name": "name",
          "type": "string"
        },
        {
          "internalType": "bool",
          "name": "isRegistered",
          "type": "bool"
        }
      ],
      "stateMutability": "view",
      "type": "function",
      "constant": true
    },
    {
      "inputs": [],
      "name": "artworkCount",
      "outputs": [
        {
          "internalType": "uint256",
          "name": "",
          "type": "uint256"
        }
      ],
      "stateMutability": "view",
      "type": "function",
      "constant": true
    },
    {
      "inputs": [
        {
          "internalType": "uint256",
          "name": "",
          "type": "uint256"
        }
      ],
      "name": "artworks",
      "outputs": [
        {
          "internalType": "uint256",
          "name": "id",
          "type": "uint256"
        },
        {
          "internalType": "address",
          "name": "artist",
          "type": "address"
        },
        {
          "internalType": "string",
          "name": "title",
          "type": "string"
        },
        {
          "internalType": "string",
          "name": "description",
          "type": "string"
        },
        {
          "internalType": "string",
          "name": "ipfsHash",
          "type": "string"
        },
        {
          "internalType": "uint256",
          "name": "price",
          "type": "uint256"
        },
        {
          "internalType": "bool",
          "name": "isSold",
          "type": "bool"
        }
      ],
      "stateMutability": "view",
      "type": "function",
      "constant": true
    },
    {
      "inputs": [
        {
          "internalType": "string",
          "name": "_name",
          "type": "string"
        }
      ],
      "name": "registerAsArtist",
      "outputs": [],
      "stateMutability": "nonpayable",
      "type": "function"
    },
    {
      "inputs": [
        {
          "internalType": "string",
          "name": "_title",
          "type": "string"
        },
        {
          "internalType": "string",
          "name": "_description",
          "type": "string"
        },
        {
          "internalType": "string",
          "name": "_ipfsHash",
          "type": "string"
        },
        {
          "internalType": "uint256",
          "name": "_price",
          "type": "uint256"
        }
      ],
      "name": "uploadArtwork",
      "outputs": [],
      "stateMutability": "nonpayable",
      "type": "function"
    },
    {
      "inputs": [
        {
          "internalType": "uint256",
          "name": "_artworkId",
          "type": "uint256"
        }
      ],
      "name": "purchaseArtwork",
      "outputs": [],
      "stateMutability": "payable",
      "type": "function",
      "payable": true
    },
    {
      "inputs": [
        {
          "internalType": "address",
          "name": "_artist",
          "type": "address"
        }
      ],
      "name": "tipArtist",
      "outputs": [],
      "stateMutability": "payable",
      "type": "function",
      "payable": true
    },
    {
      "inputs": [
        {
          "internalType": "uint256",
          "name": "_artworkId",
          "type": "uint256"
        }
      ],
      "name": "removeArtwork",
      "outputs": [],
      "stateMutability": "payable",
      "type": "function",
      "payable": true
    },
    {
      "inputs": [
        {
          "internalType": "uint256",
          "name": "_artworkId",
          "type": "uint256"
        }
      ],
      "name": "getArtworkBasic",
      "outputs": [
        {
          "internalType": "uint256",
          "name": "id",
          "type": "uint256"
        },
        {
          "internalType": "address",
          "name": "artist",
          "type": "address"
        },
        {
          "internalType": "uint256",
          "name": "price",
          "type": "uint256"
        },
        {
          "internalType": "bool",
          "name": "isSold",
          "type": "bool"
        }
      ],
      "stateMutability": "view",
      "type": "function",
      "constant": true
    },
    {
      "inputs": [
        {
          "internalType": "uint256",
          "name": "_artworkId",
          "type": "uint256"
        }
      ],
      "name": "getArtworkDetails",
      "outputs": [
        {
          "internalType": "string",
          "name": "title",
          "type": "string"
        },
        {
          "internalType": "string",
          "name": "description",
          "type": "string"
        },
        {
          "internalType": "string",
          "name": "ipfsHash",
          "type": "string"
        }
      ],
      "stateMutability": "view",
      "type": "function",
      "constant": true
    },
    {
      "inputs": [
        {
          "internalType": "address",
          "name": "_artist",
          "type": "address"
        }
      ],
      "name": "getArtistInfo",
      "outputs": [
        {
          "internalType": "string",
          "name": "name",
          "type": "string"
        },
        {
          "internalType": "bool",
          "name": "isRegistered",
          "type": "bool"
        }
      ],
      "stateMutability": "view",
      "type": "function",
      "constant": true
    }
  ],
  "bytecode": "0x608060405234801561001057600080fd5b50611927806100206000396000f3fe60806040526004361061009c5760003560e01c80632bcfd139116100645780632bcfd139146101665780634b60267314610179578063a0876445146101ac578063b33b6021146101d0578063c247620d146101f0578063cb80e5a31461021057600080fd5b806301c7db7d146100a1578063069dab8f146100f05780630d008cb21461011e5780631287fb921461013357806322b6092714610146575b600080fd5b3480156100ad57600080fd5b506100c16100bc366004611405565b61023f565b604080519485526001600160a01b03909316602085015291830152151560608201526080015b60405180910390f35b3480156100fc57600080fd5b5061011061010b36600461141e565b6104a8565b6040516100e7929190611494565b61013161012c36600461141e565b61054f565b005b610131610141366004611405565b6106e1565b34801561015257600080fd5b5061013161016136600461155b565b61088d565b610131610174366004611405565b6109ad565b34801561018557600080fd5b50610199610194366004611405565b610c7b565b6040516100e79796959493929190611598565b3480156101b857600080fd5b506101c260005481565b6040519081526020016100e7565b3480156101dc57600080fd5b506101316101eb366004611604565b610e5d565b3480156101fc57600080fd5b5061011061020b36600461141e565b6110c8565b34801561021c57600080fd5b5061023061022b366004611405565b6111b0565b6040516100e793929190611694565b60008060008060008511801561025757506000548511155b61027c5760405162461bcd60e51b8152600401610273906116d7565b60405180910390fd5b6000858152600260208181526040808420815160e0810183528154815260018201546001600160a01b0316938101939093529283018054929392918401916102c390611703565b80601f01602080910402602001604051908101604052809291908181526020018280546102ef90611703565b801561033c5780601f106103115761010080835404028352916020019161033c565b820191906000526020600020905b81548152906001019060200180831161031f57829003601f168201915b5050505050815260200160038201805461035590611703565b80601f016020809104026020016040519081016040528092919081815260200182805461038190611703565b80156103ce5780601f106103a3576101008083540402835291602001916103ce565b820191906000526020600020905b8154815290600101906020018083116103b157829003601f168201915b505050505081526020016004820180546103e790611703565b80601f016020809104026020016040519081016040528092919081815260200182805461041390611703565b80156104605780601f1061043557610100808354040283529160200191610460565b820191906000526020600020905b81548152906001019060200180831161044357829003601f168201915b5050509183525050600582015460208083019190915260069092015460ff16151560409091015281519082015160a083015160c0909301519199909850919650945092505050565b6001602052600090815260409020805481906104c390611703565b80601f01602080910402602001604051908101604052809291908181526020018280546104ef90611703565b801561053c5780601f106105115761010080835404028352916020019161053c565b820191906000526020600020905b81548152906001019060200180831161051f57829003601f168201915b5050506001909301549192505060ff1682565b6001600160a01b03811661059e5760405162461bcd60e51b8152602060048201526016602482015275496e76616c696420617274697374206164647265737360501b6044820152606401610273565b6001600160a01b0381166000908152600160208190526040909120015460ff166106025760405162461bcd60e51b8152602060048201526015602482015274105c9d1a5cdd081b9bdd081c9959da5cdd195c9959605a1b6044820152606401610273565b6000341161065c5760405162461bcd60e51b815260206004820152602160248201527f54697020616d6f756e74206d7573742062652067726561746572207468616e206044820152600360fc1b6064820152608401610273565b6040516001600160a01b038216903480156108fc02916000818181858888f19350505050158015610691573d6000803e3d6000fd5b50604080516001600160a01b038316815233602082015234918101919091527f91d9aec1bf873fb589194ec67c304522c89e9e1de41ed647cf135fb41226befc906060015b60405180910390a150565b6000811180156106f357506000548111155b61070f5760405162461bcd60e51b8152600401610273906116d7565b6000818152600260205260409020600681015460ff16156107615760405162461bcd60e51b815260206004820152600c60248201526b105b1c9958591e481cdbdb1960a21b6044820152606401610273565b80600501543410156107a85760405162461bcd60e51b815260206004820152601060248201526f2737ba1032b737bab3b41022ba3432b960811b6044820152606401610273565b6001810154336001600160a01b03909116036108065760405162461bcd60e51b815260206004820152601b60248201527f43616e6e6f742062757920796f7572206f776e20617274776f726b00000000006044820152606401610273565b60018101546040516001600160a01b03909116903480156108fc02916000818181858888f19350505050158015610841573d6000803e3d6000fd5b5060068101805460ff19166001179055604080518381523360208201527f74f29d83740a8040033bd2cc9cf371a1dbcc9c819f8b8e81f601f537adc6320f910160405180910390a15050565b336000908152600160208190526040909120015460ff16156108e65760405162461bcd60e51b8152602060048201526012602482015271105b1c9958591e481c9959da5cdd195c995960721b6044820152606401610273565b600081511161092e5760405162461bcd60e51b81526020600482015260146024820152734e616d652063616e6e6f7420626520656d70747960601b6044820152606401610273565b60408051808201825282815260016020808301829052336000908152919052919091208151819061095f908261178c565b50602091909101516001909101805460ff19169115159190911790556040517fd4fd8fd455c3fdfe36126d7de16d1f208385873ff3250ddf3bc9b833ba2b7e35906106d6903390849061184c565b6000811180156109bf57506000548111155b6109db5760405162461bcd60e51b8152600401610273906116d7565b600081815260026020526040902060018101546001600160a01b03163314610a565760405162461bcd60e51b815260206004820152602860248201527f4f6e6c7920746865206172746973742063616e2072656d6f766520746865697260448201526720617274776f726b60c01b6064820152608401610273565b600681015460ff1615610aab5760405162461bcd60e51b815260206004820152601a60248201527f43616e6e6f742072656d6f766520736f6c6420617274776f726b0000000000006044820152606401610273565b6000816005015411610b0b5760405162461bcd60e51b8152602060048201526024808201527f417274776f726b207072696365206d75737420626520677265617465722074686044820152630616e20360e41b6064820152608401610273565b6000606482600501546005610b209190611886565b610b2a91906118a3565b905080600003610b38575060015b80341015610b885760405162461bcd60e51b815260206004820152601860248201527f496e73756666696369656e742072656d6f76616c2066656500000000000000006044820152606401610273565b60006005830181905560068301805460ff19166001179055610baa82346118c5565b90508015610c3c57604051600090339083908381818185875af1925050503d8060008114610bf4576040519150601f19603f3d011682016040523d82523d6000602084013e610bf9565b606091505b5050905080610c3a5760405162461bcd60e51b815260206004820152600d60248201526c1499599d5b990819985a5b1959609a1b6044820152606401610273565b505b604080518581523360208201527ff1f2334ab266b1a6f3eba61d243e4b403dfad695d934bf3a16ef8607984d21da91015b60405180910390a150505050565b600260208190526000918252604090912080546001820154928201805491936001600160a01b03169291610cae90611703565b80601f0160208091040260200160405190810160405280929190818152602001828054610cda90611703565b8015610d275780601f10610cfc57610100808354040283529160200191610d27565b820191906000526020600020905b815481529060010190602001808311610d0a57829003601f168201915b505050505090806003018054610d3c90611703565b80601f0160208091040260200160405190810160405280929190818152602001828054610d6890611703565b8015610db55780601f10610d8a57610100808354040283529160200191610db5565b820191906000526020600020905b815481529060010190602001808311610d9857829003601f168201915b505050505090806004018054610dca90611703565b80601f0160208091040260200160405190810160405280929190818152602001828054610df690611703565b8015610e435780601f10610e1857610100808354040283529160200191610e43565b820191906000526020600020905b815481529060010190602001808311610e2657829003601f168201915b50505050600583015460069093015491929160ff16905087565b336000908152600160208190526040909120015460ff16610ec05760405162461bcd60e51b815260206004820152601760248201527f4e6f7420612072656769737465726564206172746973740000000000000000006044820152606401610273565b6000845111610f095760405162461bcd60e51b81526020600482015260156024820152745469746c652063616e6e6f7420626520656d70747960581b6044820152606401610273565b6000825111610f5a5760405162461bcd60e51b815260206004820152601960248201527f4950465320686173682063616e6e6f7420626520656d707479000000000000006044820152606401610273565b60008111610faa5760405162461bcd60e51b815260206004820152601c60248201527f5072696365206d7573742062652067726561746572207468616e2030000000006044820152606401610273565b600080549080610fb9836118d8565b90915550506040805160e081018252600080548083523360208085019182528486018a8152606086018a90526080860189905260a0860188905260c08601859052928452600290819052949092208351815591516001830180546001600160a01b0319166001600160a01b03909216919091179055519192909190820190611041908261178c565b5060608201516003820190611056908261178c565b506080820151600482019061106b908261178c565b5060a0820151600582015560c0909101516006909101805460ff1916911515919091179055600054604080519182523360208301527f65a950f1090afe6c91ceb9bfdf9336a7629cefa9f1e77fc2c44d9f34cfb00a239101610c6d565b606060008060016000856001600160a01b03166001600160a01b0316815260200190815260200160002060405180604001604052908160008201805461110d90611703565b80601f016020809104026020016040519081016040528092919081815260200182805461113990611703565b80156111865780601f1061115b57610100808354040283529160200191611186565b820191906000526020600020905b81548152906001019060200180831161116957829003601f168201915b50505091835250506001919091015460ff1615156020918201528151910151909590945092505050565b60608060606000841180156111c757506000548411155b6111e35760405162461bcd60e51b8152600401610273906116d7565b6000848152600260208181526040808420815160e0810183528154815260018201546001600160a01b03169381019390935292830180549293929184019161122a90611703565b80601f016020809104026020016040519081016040528092919081815260200182805461125690611703565b80156112a35780601f10611278576101008083540402835291602001916112a3565b820191906000526020600020905b81548152906001019060200180831161128657829003601f168201915b505050505081526020016003820180546112bc90611703565b80601f01602080910402602001604051908101604052809291908181526020018280546112e890611703565b80156113355780601f1061130a57610100808354040283529160200191611335565b820191906000526020600020905b81548152906001019060200180831161131857829003601f168201915b5050505050815260200160048201805461134e90611703565b80601f016020809104026020016040519081016040528092919081815260200182805461137a90611703565b80156113c75780601f1061139c576101008083540402835291602001916113c7565b820191906000526020600020905b8154815290600101906020018083116113aa57829003601f168201915b50505091835250506005820154602082015260069091015460ff16151560409182015281015160608201516080909201519097919650945092505050565b60006020828403121561141757600080fd5b5035919050565b60006020828403121561143057600080fd5b81356001600160a01b038116811461144757600080fd5b9392505050565b6000815180845260005b8181101561147457602081850181015186830182015201611458565b506000602082860101526020601f19601f83011685010191505092915050565b6040815260006114a7604083018561144e565b905082151560208301529392505050565b634e487b7160e01b600052604160045260246000fd5b600082601f8301126114df57600080fd5b813567ffffffffffffffff808211156114fa576114fa6114b8565b604051601f8301601f19908116603f01168101908282118183101715611522576115226114b8565b8160405283815286602085880101111561153b57600080fd5b836020870160208301376000602085830101528094505050505092915050565b60006020828403121561156d57600080fd5b813567ffffffffffffffff81111561158457600080fd5b611590848285016114ce565b949350505050565b8781526001600160a01b038716602082015260e0604082018190526000906115c29083018861144e565b82810360608401526115d4818861144e565b905082810360808401526115e8818761144e565b60a0840195909552505090151560c09091015295945050505050565b6000806000806080858703121561161a57600080fd5b843567ffffffffffffffff8082111561163257600080fd5b61163e888389016114ce565b9550602087013591508082111561165457600080fd5b611660888389016114ce565b9450604087013591508082111561167657600080fd5b50611683878288016114ce565b949793965093946060013593505050565b6060815260006116a7606083018661144e565b82810360208401526116b9818661144e565b905082810360408401526116cd818561144e565b9695505050505050565b602080825260129082015271125b9d985b1a5908185c9d1ddbdc9ac8125160721b604082015260600190565b600181811c9082168061171757607f821691505b60208210810361173757634e487b7160e01b600052602260045260246000fd5b50919050565b601f82111561178757600081815260208120601f850160051c810160208610156117645750805b601f850160051c820191505b8181101561178357828155600101611770565b5050505b505050565b815167ffffffffffffffff8111156117a6576117a66114b8565b6117ba816117b48454611703565b8461173d565b602080601f8311600181146117ef57600084156117d75750858301515b600019600386901b1c1916600185901b178555611783565b600085815260208120601f198616915b8281101561181e578886015182559484019460019091019084016117ff565b508582101561183c5787850151600019600388901b60f8161c191681555b5050505050600190811b01905550565b6001600160a01b03831681526040602082018190526000906115909083018461144e565b634e487b7160e01b600052601160045260246000fd5b808202811582820484141761189d5761189d611870565b92915050565b6000826118c057634e487b7160e01b600052601260045260246000fd5b500490565b8181038181111561189d5761189d611870565b6000600182016118ea576118ea611870565b506001019056fea2646970667358221220e5f24ddfc328308f7d5011648bf470a3867dd0d6f6faaf9999aafa3b9985b7b664736f6c63430008130033",
  "immutableReferences": {},
  "source": "// SPDX-License-Identifier: MIT\r\npragma solidity ^0.8.19;\r\n\r\ncontract ArtGallery {\r\n    struct Artist {\r\n        string name;\r\n        bool isRegistered;\r\n    }\r\n\r\n    struct Artwork {\r\n        uint id;\r\n        address artist;\r\n        string title;\r\n        string description;\r\n        string ipfsHash;\r\n        uint price;\r\n        bool isSold;\r\n    }\r\n\r\n    uint public artworkCount;\r\n    mapping(address => Artist) public artists;\r\n    mapping(uint => Artwork) public artworks;\r\n\r\n    event ArtistRegistered(address artist, string name);\r\n    event ArtworkUploaded(uint artworkId, address artist);\r\n    event ArtworkPurchased(uint artworkId, address buyer);\r\n    event ArtworkRemoved(uint artworkId, address artist);\r\n    event Tipped(address artist, address tipper, uint amount);\r\n\r\n    modifier onlyRegisteredArtist() {\r\n        require(artists[msg.sender].isRegistered, \"Not a registered artist\");\r\n        _;\r\n    }\r\n\r\n    function registerAsArtist(string memory _name) public {\r\n        require(!artists[msg.sender].isRegistered, \"Already registered\");\r\n        require(bytes(_name).length > 0, \"Name cannot be empty\");\r\n        artists[msg.sender] = Artist(_name, true);\r\n        emit ArtistRegistered(msg.sender, _name);\r\n    }\r\n\r\n    function uploadArtwork(\r\n        string memory _title, \r\n        string memory _description, \r\n        string memory _ipfsHash, \r\n        uint _price\r\n    ) public onlyRegisteredArtist {\r\n        require(bytes(_title).length > 0, \"Title cannot be empty\");\r\n        require(bytes(_ipfsHash).length > 0, \"IPFS hash cannot be empty\");\r\n        require(_price > 0, \"Price must be greater than 0\");\r\n        \r\n        artworkCount++;\r\n        artworks[artworkCount] = Artwork({\r\n            id: artworkCount,\r\n            artist: msg.sender,\r\n            title: _title,\r\n            description: _description,\r\n            ipfsHash: _ipfsHash,\r\n            price: _price,\r\n            isSold: false\r\n        });\r\n        \r\n        emit ArtworkUploaded(artworkCount, msg.sender);\r\n    }\r\n\r\n    function purchaseArtwork(uint _artworkId) public payable {\r\n        require(_artworkId > 0 && _artworkId <= artworkCount, \"Invalid artwork ID\");\r\n        \r\n        Artwork storage art = artworks[_artworkId];\r\n        require(!art.isSold, \"Already sold\");\r\n        require(msg.value >= art.price, \"Not enough Ether\");\r\n        require(art.artist != msg.sender, \"Cannot buy your own artwork\");\r\n        \r\n        payable(art.artist).transfer(msg.value);\r\n        art.isSold = true;\r\n\r\n        emit ArtworkPurchased(_artworkId, msg.sender);\r\n    }\r\n\r\n    function tipArtist(address _artist) public payable {\r\n        require(_artist != address(0), \"Invalid artist address\");\r\n        require(artists[_artist].isRegistered, \"Artist not registered\");\r\n        require(msg.value > 0, \"Tip amount must be greater than 0\");\r\n        \r\n        payable(_artist).transfer(msg.value);\r\n        emit Tipped(_artist, msg.sender, msg.value);\r\n    }\r\n    \r\n    function removeArtwork(uint _artworkId) public payable {\r\n        require(_artworkId > 0 && _artworkId <= artworkCount, \"Invalid artwork ID\");\r\n        \r\n        Artwork storage art = artworks[_artworkId];\r\n        require(art.artist == msg.sender, \"Only the artist can remove their artwork\");\r\n        require(!art.isSold, \"Cannot remove sold artwork\");\r\n        require(art.price > 0, \"Artwork price must be greater than 0\");\r\n        \r\n        // Calculate 5% removal fee BEFORE modifying the artwork\r\n        uint removalFee = (art.price * 5) / 100;\r\n        \r\n        // Ensure minimum fee of 1 wei to avoid zero fee issues\r\n        if (removalFee == 0) {\r\n            removalFee = 1;\r\n        }\r\n        \r\n        require(msg.value >= removalFee, \"Insufficient removal fee\");\r\n        \r\n        // Mark artwork as removed - set price to 0 and mark as sold to hide it\r\n        art.price = 0;\r\n        art.isSold = true;\r\n        \r\n        // Handle refund of excess payment\r\n        uint refundAmount = msg.value - removalFee;\r\n        if (refundAmount > 0) {\r\n            (bool refundSuccess, ) = payable(msg.sender).call{value: refundAmount}(\"\");\r\n            require(refundSuccess, \"Refund failed\");\r\n        }\r\n        \r\n        // The removal fee stays in the contract as platform fee\r\n        emit ArtworkRemoved(_artworkId, msg.sender);\r\n    }\r\n\r\n    // Split the getter into multiple functions to avoid stack too deep errors\r\n    function getArtworkBasic(uint _artworkId) public view returns (\r\n        uint id,\r\n        address artist,\r\n        uint price,\r\n        bool isSold\r\n    ) {\r\n        require(_artworkId > 0 && _artworkId <= artworkCount, \"Invalid artwork ID\");\r\n        Artwork memory art = artworks[_artworkId];\r\n        return (art.id, art.artist, art.price, art.isSold);\r\n    }\r\n\r\n    function getArtworkDetails(uint _artworkId) public view returns (\r\n        string memory title,\r\n        string memory description,\r\n        string memory ipfsHash\r\n    ) {\r\n        require(_artworkId > 0 && _artworkId <= artworkCount, \"Invalid artwork ID\");\r\n        Artwork memory art = artworks[_artworkId];\r\n        return (art.title, art.description, art.ipfsHash);\r\n    }\r\n\r\n    function getArtistInfo(address _artist) public view returns (\r\n        string memory name,\r\n        bool isRegistered\r\n    ) {\r\n        Artist memory artist = artists[_artist];\r\n        return (artist.name, artist.isRegistered);\r\n    }\r\n}",
  "sourcePath": "A:\\On_going\\picbidding\\contracts\\ArtGallery.sol",
  "compiler": {
    "name": "solc",
    "version": "0.8.19+commit.7dd6d404.Emscripten.clang"
  },
  "schemaVersion": "3.4.16",
  "updatedAt": "2025-07-13T17:05:54.113Z",
  "networkType": "ethereum",
  "devdoc": {
    "kind": "dev",
    "methods": {},
    "version": 1
  },
  "userdoc": {
    "kind": "user",
    "methods": {},
    "version": 1
  }
}